:100000000C9439010C94CB050C94A0050C94750547
:100010000C944A050C941F050C94F4040C94C90428
:100020000C949E040C946A010C946A010C946A016D
:100030000C946A010C946A010C946A010C946A0194
:100040000C946A010C9448070C946A010C946A01A0
:100050000C946A010C946A010C946A010C94540487
:100060000C946A010C946A010C946A010C946A0164
:100070000C946A010C946A010C946A010C946A0154
:100080000C9418070C946A010C946A010C946A0190
:100090000C9420060C94F6050C946A010C946A01E9
:1000A0000C946A010C946A010C9456060C946A0133
:1000B0000C946A010C946A010C946A010C946A0114
:1000C0000C946A010C946A010C946A010C946A0104
:1000D0000C946A010C946A010C946A010C946A01F4
:1000E0000C946A010C948A010C945D0A0C945C02D5
:1000F0000C94CA010C949C010C94A9010C94C101AC
:100100000C9490030C94CF010C94BA020C949802B6
:100110000C9494010C945B020C9498010C94B7011C
:100120000C9489020C94C5010C94BD010C94A5019A
:100130000C949F010C9490010C94CB010C943F0300
:100140000C94AF010C94AC020C94B3010C94F20229
:1001500000002100240027002A002D003000330079
:1001600001010000040107010A010000220025002E
:1001700028002B002E003100340002010000050190
:1001800008010B01000020002300260029002C009C
:100190002F003200000100000301060109010505DE
:1001A0000505070508080808020202020A0A0808ED
:1001B000040404040101010101010101030303031B
:1001C00003030303040707070C0C0C0C0C0C0C0CAA
:1001D0000202020206060606060606060B0B0B0BBB
:1001E0000B0B0B0B010210202008081020401020E0
:1001F00040800201020108040201010204081020EB
:1002000040808040201008040201800402018040E8
:100210002010080402010804020101020408102051
:100220004080010204081020408000000A0B0209EF
:100230000C0D0E0807030401000000000000000080
:1002400000000000000000000000000000000000AE
:10025000000000000000121110000000000000006B
:10026000000000000000000000000000000000008E
:100270005D0A11241FBECFEFD1E2DEBFCDBF00E08B
:100280000CBF12E0A0E0B2E0EEE7F5E100E00BBF4A
:1002900002C007900D92A232B107D9F723E0A2E283
:1002A000B2E001C01D92A932B207E1F711E0C9E343
:1002B000D1E000E006C021970109802FFE010E94D5
:1002C000AC0AC833D10780E00807A9F70E94780775
:1002D0000C94BD0A0C9400008150823108F05AC081
:1002E000E82FF0E08827E858FE4F8F4F0C94AC0AB7
:1002F00098019C018A0190019401CA019F01A50106
:10030000A901AF01B301B701BD01C101CA01C50116
:10031000CB01CF01809180008F778093800008957A
:10032000809180008F7DF9CF80918000877FF5CF0D
:1003300084B58F7784BD089584B58F7DFBCF809180
:10034000B0008F778093B00008958091B0008F7DCA
:10035000F9CF809190008F778093900008958091DD
:1003600090008F7DF9CF80919000877FF5CF8091AD
:10037000A0008F778093A00008958091A0008F7DCA
:10038000F9CF8091A000877FF5CF809120018F77F2
:10039000809320010895809120018F7DF9CF809175
:1003A0002001877FF5CFCF93DF93282F30E0F9012D
:1003B000E65DFD4F8491F901EC51FE4FD491F901B6
:1003C000E256FE4FC491CC23A1F081110E946C0132
:1003D000EC2FF0E0EE0FFF1FEC57FE4FA591B4910C
:1003E000EC91ED2381E090E009F480E0DF91CF9182
:1003F000089580E090E0FACF1F93CF93DF93282FEA
:1004000030E0F901E65DFD4F8491F901EC51FE4FBA
:10041000D491F901E256FE4FC491CC23A9F0162FD6
:1004200081110E946C01EC2FF0E0EE0FFF1FE659E6
:10043000FE4FA591B4918FB7F894EC91111108C0BB
:10044000D095DE23DC938FBFDF91CF911F9108956C
:10045000DE2BF8CFCF93DF9390E0FC01EC51FE4F01
:10046000249182569E4FFC0184918823D1F090E024
:10047000880F991FFC01E05BFE4FA591B491FC0130
:10048000E659FE4FC591D491623071F49FB7F8944C
:100490003C91822F809583238C93E8812E2B288397
:1004A0009FBFDF91CF9108958FB7F894EC912E2BD9
:1004B0002C938FBFF6CF0895AF92BF92CF92DF9269
:1004C000EF92FF920F931F93CF93DF936C017B0109
:1004D0008B01040F151FEB015E01AE18BF08C0179A
:1004E000D10759F06991D601ED91FC910190F0810D
:1004F000E02DC6011995892B79F7C501DF91CF91C0
:100500001F910F91FF90EF90DF90CF90BF90AF9031
:100510000895FC01538D448D252F30E0842F90E009
:10052000821B930B541710F0CF96089501970895EE
:10053000FC01918D828D981761F0A28DAE0FBF2FB7
:10054000B11D5D968C91928D9F5F9F73928F90E00D
:1005500008958FEF9FEF0895FC01918D828D98177C
:1005600031F0828DE80FF11D858D90E008958FEFB9
:100570009FEF0895FC01918D228D892F90E0805C82
:100580009F4F821B91098F739927089583E892E00A
:100590000E94BA0221E0892B09F420E0822F0895FD
:1005A000FC01A48DA80FB92FB11DA35ABF4F2C91E8
:1005B000848D90E001968F739927848FA689B789DF
:1005C0002C93A089B1898C91837080648C93938DD6
:1005D000848D981306C00288F389E02D80818F7D79
:1005E00080830895EF92FF920F931F93CF93DF9331
:1005F000EC0181E0888F9B8D8C8D98131AC0E8895F
:10060000F989808185FF15C09FB7F894EE89FF892D
:100610006083E889F98980818370806480839FBFCB
:1006200081E090E0DF91CF911F910F91FF90EF90CB
:100630000895F62E0B8D10E00F5F1F4F0F731127DB
:10064000E02E8C8D8E110CC00FB607FCFACFE88916
:10065000F989808185FFF5CFCE010E94D002F1CFCC
:10066000EB8DEC0FFD2FF11DE35AFF4FF0829FB78A
:10067000F8940B8FEA89FB8980818062CFCFCF937A
:10068000DF93EC01888D8823B9F0AA89BB89E889BA
:10069000F9898C9185FD03C0808186FD0DC00FB660
:1006A00007FCF7CF8C9185FFF2CF808185FFEDCFDE
:1006B000CE010E94D002E9CFDF91CF91089580E072
:1006C00090E0892B49F080E090E0892B29F00E948E
:1006D000000081110E94000080E090E0892B29F049
:1006E0000E94C60281110E94000080E090E0892BE8
:1006F00049F080E090E0892B29F00E9400008111F0
:100700000E94000080E090E0892B49F080E090E0BA
:10071000892B29F00E94000081110C94000008959B
:1007200080913002909131020297A1F48091A10052
:10073000887F8093A10010922302109224021092CD
:1007400025021092260281E080932F02109231023E
:10075000109230020895FC01680F791F8FEF9FEF10
:100760002191922728E0AC01880F991F57FF04C000
:1007700031E2832730E193272150A9F7E617F707E5
:1007800079F70895AF92BF92CF92DF92EF92FF92E6
:100790000F931F93CF93DF93CDB7DEB7CC58D1091A
:1007A0000FB6F894DEBF0FBECDBF962FBA018E01F3
:1007B000085B1F4FD8018C9311969C93119712964A
:1007C0002C93E22EF12C222329F0A701C8010396D5
:1007D0000E94B40AB7016D5F7F4FC8010E94AB034E
:1007E000F801EE0DFF1D93838483B5E0EB0EF11C41
:1007F000F80161E070E081E030E020E09191AB0130
:100800004F5F5F4FAA24A394B12CAC0EBD1EA20E65
:10081000B31E91110CC0D5018C939B0181E0BF01E7
:10082000601B710B6E157F05A8F4BA01E7CFCC24CD
:10083000C394D12CCC0EDD1EC60ED71ED6019C93C0
:100840008F5F8F3F61F7D5018C939A01AB014E5FAB
:100850005F4FE4CFE1E0F0E0EC0FFD1F2E0F3F1FF4
:10086000D9018C93E1E0F0E0EC0FFD1FE40FF51FE0
:1008700010824F5F5F4FBE016F5F7F4F83E892E052
:100880000E945C02C457DF4F0FB6F894DEBF0FBE64
:10089000CDBFDF91CF911F910F91FF90EF90DF902F
:1008A000CF90BF90AF9008951F920F920FB60F9206
:1008B00011242F933F938F939F93AF93BF93809176
:1008C000250390912603A0912703B091280330912E
:1008D000240323E0230F2D3758F50196A11DB11DE8
:1008E000209324038093250390932603A09327034A
:1008F000B09328038091200390912103A0912203BB
:10090000B09123030196A11DB11D80932003909304
:100910002103A0932203B0932303BF91AF919F9132
:100920008F913F912F910F900FBE0F901F901895B0
:1009300026E8230F0296A11DB11DD2CF1F920F9260
:100940000FB60F9211240BB60F922F933F934F9334
:100950005F936F937F938F939F93AF93BF93EF9327
:10096000FF93E0910E02F0910F021995FF91EF9124
:10097000BF91AF919F918F917F916F915F914F91B7
:100980003F912F910F900BBE0F900FBE0F901F90B5
:1009900018951F920F920FB60F9211240BB60F925B
:1009A0002F933F934F935F936F937F938F939F9377
:1009B000AF93BF93EF93FF93E0910C02F0910D0280
:1009C0001995FF91EF91BF91AF919F918F917F9179
:1009D0006F915F914F913F912F910F900BBE0F90B0
:1009E0000FBE0F901F9018951F920F920FB60F9287
:1009F00011240BB60F922F933F934F935F936F93F6
:100A00007F938F939F93AF93BF93EF93FF93E09167
:100A10000202F09103021995FF91EF91BF91AF91FE
:100A20009F918F917F916F915F914F913F912F9106
:100A30000F900BBE0F900FBE0F901F9018951F9236
:100A40000F920FB60F9211240BB60F922F933F9374
:100A50004F935F936F937F938F939F93AF93BF93C6
:100A6000EF93FF93E0910002F09101021995FF913D
:100A7000EF91BF91AF919F918F917F916F915F9116
:100A80004F913F912F910F900BBE0F900FBE0F9083
:100A90001F9018951F920F920FB60F9211240BB64C
:100AA0000F922F933F934F935F936F937F938F9307
:100AB0009F93AF93BF93EF93FF93E0910A02F0915E
:100AC0000B021995FF91EF91BF91AF919F918F917B
:100AD0007F916F915F914F913F912F910F900BBE3E
:100AE0000F900FBE0F901F9018951F920F920FB688
:100AF0000F9211240BB60F922F933F934F935F9356
:100B00006F937F938F939F93AF93BF93EF93FF93D5
:100B1000E0910802F09109021995FF91EF91BF91C0
:100B2000AF919F918F917F916F915F914F913F9185
:100B30002F910F900BBE0F900FBE0F901F90189526
:100B40001F920F920FB60F9211240BB60F922F9394
:100B50003F934F935F936F937F938F939F93AF9345
:100B6000BF93EF93FF93E0910602F091070219956E
:100B7000FF91EF91BF91AF919F918F917F916F9175
:100B80005F914F913F912F910F900BBE0F900FBE31
:100B90000F901F9018951F920F920FB60F9211246D
:100BA0000BB60F922F933F934F935F936F937F9367
:100BB0008F939F93AF93BF93EF93FF93E0910402C2
:100BC000F09105021995FF91EF91BF91AF919F911F
:100BD0008F917F916F915F914F913F912F910F90E6
:100BE0000BBE0F900FBE0F901F9018951F920F9283
:100BF0000FB60F9211240BB60F922F933F934F9382
:100C00005F936F937F938F939F93AF93BF93EF9374
:100C1000FF9383E892E00E94D002FF91EF91BF9191
:100C2000AF919F918F917F916F915F914F913F9184
:100C30002F910F900BBE0F900FBE0F901F90189525
:100C40001F920F920FB60F9211240BB60F922F9393
:100C50008F939F93EF93FF93E0919302F09194020F
:100C60008081E0919902F0919A0282FD1DC09081ED
:100C700080919C028F5F8F7320919D02821741F0BB
:100C8000E0919C02F0E0ED57FD4F958F80939C0220
:100C9000FF91EF919F918F912F910F900BBE0F902D
:100CA0000FBE0F901F9018958081F2CF1F920F9268
:100CB0000FB60F9211240BB60F922F933F934F93C1
:100CC0005F936F937F938F939F93AF93BF93EF93B4
:100CD000FF938AE10E94D30161E0892B09F060E073
:100CE0008AE10E94FC018091220291E0811190E052
:100CF00090932202811131C0809130029091310293
:100D00000297F1F58091230290912402A09125028F
:100D1000B09126020196A11DB11D809323029093EC
:100D20002402A0932502B093260280912302909181
:100D30002402A0912502B091260281329E44A10591
:100D4000B1055CF08091A100887F8093A10084E0D0
:100D500090E09093310280933002FF91EF91BF9128
:100D6000AF919F918F917F916F915F914F913F9143
:100D70002F910F900BBE0F900FBE0F901F901895E4
:100D80008091300290913102039739F74091270208
:100D9000509128026091290270912A0280912302C9
:100DA00090912402A0912502B0912602481759077C
:100DB0006A077B07D4F58FEF9FEF40912302509194
:100DC00024026091250270912602092E000CAA0BC4
:100DD000BB0B840F951FA61FB71F80932302909310
:100DE0002402A0932502B093260240912302509141
:100DF0002402609125027091260280912702909131
:100E00002802A0912902B0912A02481759076A07BF
:100E10007B0709F0A2CF8091A100887F8093A10079
:100E2000109231021092300298CF81E090E0C5CF4D
:100E30001F920F920FB60F9211240BB60F922F93A1
:100E40003F934F935F936F937F938F939F93AF9352
:100E5000BF93EF93FF9388E10E94D30161E0892B58
:100E600009F060E088E10E94FC01FF91EF91BF91E1
:100E7000AF919F918F917F916F915F914F913F9132
:100E80002F910F900BBE0F900FBE0F901F901895D3
:100E90001F920F920FB60F9211240BB60F922F9341
:100EA0003F934F935F936F937F938F939F93AF93F2
:100EB000BF93EF93FF9386E10E94D30161E0892BFA
:100EC00009F060E086E10E94FC01FF91EF91BF9183
:100ED000AF919F918F917F916F915F914F913F91D2
:100EE0002F910F900BBE0F900FBE0F901F90189573
:100EF000CF93DF93CDB7DEB7C858D1090FB6F894BA
:100F0000DEBF0FBECDBF789484B5826084BD84B54A
:100F1000816084BD85B5826085BD85B5816085BDF4
:100F200080916E00816080936E00109281008091AC
:100F30008100826080938100809181008160809334
:100F40008100809180008160809380008091B10059
:100F500084608093B1008091B00081608093B00084
:100F600080919100826080939100809191008160D6
:100F70008093910080919000816080939000809197
:100F8000A10082608093A1008091A1008160809384
:100F9000A1008091A00081608093A0008091210138
:100FA00082608093210180912101816080932101E1
:100FB0008091200181608093200180917A0084607B
:100FC00080937A0080917A00826080937A00809189
:100FD0007A00816080937A0080917A0080688093A3
:100FE0007A001092C10061E086E10E942A0261E06D
:100FF00087E10E942A0261E088E10E942A0261E002
:1010000089E10E942A0261E08AE10E942A0261E0ED
:101010008BE10E942A0262E082E00E942A0280E9BB
:1010200093E0909301028093000280916A008C7F8C
:10103000826080936A00EC9AE0919302F0919402AE
:1010400082E08083E0918F02F09190021082E09123
:101050009102F091920280E1808310929B02E091D4
:101060009702F091980286E08083E0919502F091DA
:101070009602808180618083E0919502F0919602D2
:10108000808188608083E0919502F0919602808152
:1010900080688083E0919502F091960280818F7D37
:1010A00080831092820210928102CE0101967C010F
:1010B00096E4A92EB12CAC0EBD1E93E0A90EB11C76
:1010C00020E4422E22E4522E2FE0622E712C83E087
:1010D000282E312C83E892E00E94BA02892B09F471
:1010E0008AC183E892E00E949802209181023091A7
:1010F00082028111AEC02115310561F350E040E05C
:1011000090E080E0B9016F5F7F4F8217930790F501
:10111000FC01E65CFD4F1081111105C010928202A6
:1011200010928102D7CFFC01E10FF11D6E177F07EE
:10113000A8F30196F701E40FF51F01E0AF014E1986
:101140005F09101759F08217930741F3DC01A65C81
:10115000BD4F4C9141930F5F0196F0CF1F3FA9F215
:101160008217930790F6F701E40FF51F10824F5F87
:101170005F4FCBCF10928202109281024530510511
:1011800008F4A8CF9B80092D10E0C80105968417AC
:10119000950709F09FCFE4E0F0E0EC0FFD1FE00FB2
:1011A000F11FC080E5E0F0E0EC0FFD1FE00FF11F44
:1011B0008081DC2CC82EB8016D5F7F4FC7010E9473
:1011C000AB03C816D90609F085CFD9802796DFAEC4
:1011D00027978A8128968FAF289729969FAE2997BF
:1011E000992009F477CFA801BE016C5F7F4FC5013C
:1011F0000E94B40AE1E0DE126DCF2A968FAD2A97E5
:10120000813109F468C008F03DC1803109F062CF36
:101210002C960EAD1FAD2C97102701271027F894A0
:1012200010932E0200932D020115110511F58091E6
:101230008100887F809381001092350210923402E1
:10124000789420E050E040E028966FAD289782E047
:10125000A0C02734310508F061CFA9014F5F5F4F6F
:101260005093820240938102265C3D4FF9018083B6
:1012700031CF61E0101611060CF060E087E10E94AA
:10128000FC01980117FF03C0319521953109032E08
:10129000000C440B550BC301B2010E948A0ADA010B
:1012A000C9010197A109B1090097F1E0AF07B105A4
:1012B00020F08FEF9FEFA0E0B0E090938900809343
:1012C00088008AE08093810081E090E0909335026D
:1012D00080933402B5CF2C960EAD1FAD2C971027FE
:1012E00001271027F89410932C0200932B0201156C
:1012F000110551F480919100887F809391001092A4
:101300003302109232029CCF61E0101611060CF0ED
:1013100060E089E10E94FC01980117FF03C031954C
:1013200021953109032E000C440B550BC301B2016A
:101330000E948A0ADA01C9010197A109B10900973F
:1013400021E0A207B10520F08FEF9FEFA0E0B0E011
:1013500090939900809398008AE08093910081E0B7
:1013600090E090933302809332026ACF2C968EAD38
:101370009FAD2C9798278927982720912F0221111C
:101380000BC081E0898321E0A70128966FAD2897E3
:1013900084E00E94C2039ECE20912F02222309F4F2
:1013A00050CFB0E0A0E08093270290932802A09352
:1013B0002902B0932A023092310220923002009129
:1013C000230210912402209125023091260261E02F
:1013D00080179107A207B3070CF460E08BE10E942D
:1013E000FC0181EE94E09093A9008093A8008AE02C
:1013F0008093A10026CF2FB7F89480912503909178
:101400002603A0912703B09128032FBF40913602F5
:10141000509137026091380270913902841B950B0C
:10142000A60BB70B85369105A105B10540F180915A
:101430003402909135028983809132029091330277
:101440008A8380913002909131028B8323E0A7013F
:1014500060E083E00E94C2032FB7F89480912503D7
:1014600090912603A0912703B09128032FBF80936A
:10147000360290933702A0933802B09339020E944B
:101480005F0325CE823109F471CF833109F022CE7A
:10149000E2E0F0E0F0933102E09330021092230298
:1014A00010922402109225021092260260E08BE135
:1014B0000E94FC0187E893E196CFE3E8F2E0138213
:1014C000128288EE93E0A0E0B0E084839583A68347
:1014D000B78384E192E0918380838DEC90E09587DF
:1014E00084878CEC90E09787868788EC90E0918BDE
:1014F000808B89EC90E0938B828B8AEC90E0958BCB
:10150000848B8EEC90E0978B868B118E128E138ECF
:10151000148E0895A1E21A2EAA1BBB1BFD010DC05B
:10152000AA1FBB1FEE1FFF1FA217B307E407F50793
:1015300020F0A21BB30BE40BF50B661F771F881F6F
:10154000991F1A9469F760957095809590959B0105
:10155000AC01BD01CF010895EE0FFF1F881F8BBFA7
:101560000790F691E02D1994FB01DC0102C0019077
:0E1570000D9241505040D8F70895F894FFCFE7
:10157E005B025B025B025B025B025B025B025B0275
:10158E0000000000F2025C0289023F03BA029802D8
:02159E00AC029D
:00000001FF
